:020000040800F2
:10600000001000207565000861960008659600087C
:106010003D7601086996000871960008DD6E01085A
:10602000DD6E0108DD6E0108DD6E0108DD6E010820
:10603000759600082CD10108DD6E0108DD6E01089F
:10604000856A0008DD6E0108DD6E0108DD6E01085D
:10605000DD6E0108DD6E0108DD6E0108DD6E0108F0
:10606000DD6E0108DD6E0108DD6E0108DD6E0108E0
:10607000DD6E0108DD6E0108DD6E0108DD6E0108D0
:10608000DD6E0108DD6E0108DD6E0108DD6E0108C0
:10609000DD6E0108956E0008DD6E0108DD6E0108F9
:1060A000DD6E0108B96F0008956F0008DD6E01080C
:1060B000DD6E0108E5500108715B0108B5C80108F3
:1060C000B1C8010819530108C1C80108B9C80108BD
:1060D000495B0108BDC80108B15B01081D5C0108EE
:1060E000DD6E0108DD6E0108DD6E0108DD6E010860
:1060F000DD6E0108DD6E0108DD6E0108DD6E010850
:10610000DD6E0108DD6E0108DD6E0108DD6E01083F
:10611000DD6E0108DD6E0108DD6E0108DD6E01082F
:10612000DD6E0108DD6E0108DD6E0108DD6E01081F
:10613000DD6E0108DD6E0108DD6E0108DD6E01080F
:10614000DD6E0108DD6E0108DD6E0108C97601080B
:10615000C9390108DD6E0108E7C50108EDC5010870
:10616000DD6E0108DD6E0108DD6E0108DD6E0108DF
:10617000F7B5012004F014F90446002840F09F8090
:10618000534E544B544DC6E9003041F60B231022B8
:106190007F21B06028605148AB8016F0CEFC7F2292
:1061A0004F4B214630461A7008F08AFD044600B96C
:1061B000FEE74C4909F022F900B1FEE70221204632
:1061C00015F082FE00B1FEE72046474909F02CFB9E
:1061D00000B1FEE70121204616F023F800B1FEE7EA
:1061E0000121204616F02BF8074600B1FEE70146D4
:1061F0003C223E4816F0A1FC80233A46204606F198
:10620000100115F025FF802800D0FEE7384E012050
:1062100008F0AAFD2CA3D3E9002334602046CDE981
:1062200000234FF0FF324FF0FF3315F088FE014698
:1062300000B1FEE7284604F00FF90121084604F0FA
:10624000DDF80121306815F0E1FD00B1FEE7002422
:106250004FF40C620021274816F06FFC264B274AAA
:106260009C801C60264B6FF063001A609C80254A5E
:10627000254B1A60254A9C805A6105F0E5FF2B7971
:106280000B2B00D9FEE76B790A2BFBD9204B1D6045
:1062900002F0CCFF204604F02FF9082230681146A6
:1062A00015F04FFE044600B1FEE705F091F9194BD9
:1062B00019481C7003B0BDE8F04011F025BE03B0D2
:1062C000F0BD00BFAFF300800BE020FF2202000012
:1062D000243800207DA600081C380020A248002099
:1062E000A148002007001100E4D90108D43700209C
:1062F00014380020B8380020581500203B490020F1
:1063000030150020BC48002008150020F81400209B
:1063100018380020BD490020D6D901080348044B95
:10632000834202D0034B03B11847704794140020F6
:106330009414002000000000064B0749C91A891078
:1063400048BF0131491003D0044B0BB10148184735
:10635000704700BF94140020941400200000000037
:1063600010B5064C237843B9FFF7D8FF044B13B19F
:106370000448AFF300800123237010BD8048002043
:10638000000000004832020808B5054B1BB1054962
:106390000548AFF30080BDE80840FFF7CDBF00BF60
:1063A00000000000282C002048320208A3F5803AA3
:1063B000704700BF174B002B08BF134B9D46FFF7DC
:1063C000F5FF00218B460F461348144A121A16F0A7
:1063D000B4FB0E4B002B00D098470D4B002B00D088
:1063E00098470020002104000D000D48002802D02D
:1063F0000C48AFF3008010F0CFF82000290010F017
:106400000CFD0FF0BBFE00BF000008000000000004
:10641000000000000010002094140020EC4A00202E
:10642000000000000000000008B511F01DFD054B44
:10643000186028B93F21044B044A05480FF080FE3C
:1064400008BD00BF402C002000D1010813D1010875
:106450000AD10108014B186805F0A6BE402C0020A7
:1064600010B5044C206811F055FD2068BDE81040BF
:1064700005F0BCB9402C002010B5274C01F072FF8C
:1064800002F000F9236F23F0070343F003032367AF
:1064900010F0ECFE214B00209B6ADB015EBF4FF445
:1064A00080321F4B9A62D4F8203123F0070343F067
:1064B0000203C4F82031D4F8283123F0070343F055
:1064C0000203C4F82831D4F8403123F0030343F029
:1064D0000203C4F84031D4F8603123F0030343F0E1
:1064E0000203C4F86031D4F8403223F0030343F0D0
:1064F0000203C4F84032D4F8003223F0070343F01B
:106500000203C4F80032D4F8083223F0070343F042
:106510000203C4F8083210BD008000500040005A49
:106520000060005A18B1034B186000207047252006
:10653000704700BF442C002010B5054C0549206869
:1065400001F088F82068BDE81040FFF7EBBF00BFFE
:10655000C01100209C1000200348044A0449121A6C
:10656000921010F0BCBC00BF54360208543602082A
:10657000EC4A002008B500F02FF8FFF7EDFF124BB2
:1065800012498B4212D30020114B12498B4218D36F
:10659000FFF710FF186850F82240586840F8224072
:1065A000013298688242F5D30C33EAE70022F8E71B
:1065B0001C6844F8220001325C68A242F8D3083318
:1065C000E4E70022F8E700BF503202085C3202081C
:1065D0005C3202085C3202084FF480414FF0FF3019
:1065E000114B124A10B59A60D3F8882042F4700219
:1065F000C3F888200E4A91660E4901F500521066D4
:106600000D4850660220C3F8D000BFF34F8FBFF390
:106610006F8F01244FF440330848C0F88041D360A5
:1066200004600B6110BD00BF00ED00E000600008D9
:106630000090005000800044F7FF370000E100E0C8
:10664000014B1868704700BFC8110020084B1B6F32
:1066500003F00703022B04D0032B05D0012B05D038
:10666000FEE7044B18687047034BFBE7034870478D
:1066700000800050C8110020D0110020002D3101F1
:1066800008B5FFF7E3FF054B1B6FC3F3033301337B
:10669000B0FBF3F0024B186008BD00BF0080005053
:1066A000C41100200048704700B4C404014B1868AE
:1066B000704700BFD0110020054B1860054B1B6FC1
:1066C00003F00703032B01D1FFF7DABF704700BFC8
:1066D000D01100200080005000487047002D31018B
:1066E0004FF0B4439868C0F304400C280AD8DFE8A0
:1066F00000F00B0909090909072119091B1D1F00D1
:106700000F487047002070479B6803F04073B3F157
:10671000807F11D0B3F1007F10D00A4A002B08BF50
:106720001046704708487047084870470848704747
:10673000084870470848704708487047084870473D
:10674000405DC60000093D00C0EA210180BA8C010D
:106750000048E801005A62020024F40080841E0010
:1067600040420F00014B1868704700BFCC11002059
:10677000BFF34F8F0549064BCA6802F4E06213432A
:10678000CB60BFF34F8F00BFFDE700BF00ED00E01F
:106790000400FA054FF000639B6A03F17842B2F5FA
:1067A000C04F03D21968064A914203D000230370F8
:1067B00083607047012202709A689B694260F7E724
:1067C00007B0CD5E08B54FF00053024A1A60FFF7DC
:1067D000CFFF00BF02020FF073B54F4B04461A788B
:1067E0001AB102221A7002B070BDCDE90022002851
:1067F000F9D001261E7010F059FD484D484B186025
:106800000BF0B8FF2B785BB900F0E8FB40B94548C6
:106810000823454A4549006808F056F800B92E702B
:10682000434B5A6E62619B6E424AA3614FF48043B0
:106830009366414B5968E16140499960196E216046
:10684000596E6160D3F87011A160196CE160596CE8
:1068500021613B49086C1864496C596401215166F7
:106860001B6E9C0441D5374AD368D807FCD4364BFD
:106870001A68531C3ED04FF480139340334A13667A
:106880004FF400730426314C2666236610F056FB45
:1068900001300DD010F052FB40F20113984207D0A6
:1068A0004FF4005323664FF480432366C4F87061AD
:1068B0000823264C684623664FF4805323664FF026
:1068C000006323664FF4002301A9636610F01AFBEE
:1068D000009B2366019B63662B78002B83D0124BB1
:1068E0001A6822665B6863667DE7194AD368D90730
:1068F000FCD4BCE7174B1B78002BC1D14FF40072BE
:106900000C4B5A6603F5A6235B68002BB8D14FF4F5
:1069100080120E4B1A66B3E782480020834800209D
:10692000C82C0020FC110020CC2C00200071080095
:1069300000800050009000500080004455CEAC0014
:1069400000C0005400000440D41100200090004416
:10695000000004508148002070B5224D04462E7876
:10696000012E02D001232B7070BD0028FCD010F046
:10697000E5FA01300BD010F0E1FA40F20113984231
:1069800005D0194B194A5E66D368DE07FCD422682D
:10699000174B1A6662685A66A268C3F87021E268EB
:1069A0001A6422695A64E269D00744BF00229A60DF
:1069B000104B1A68013207D10F4A127822B90F49D9
:1069C0004968C90748BF1A6062690D4B5A66A269D7
:1069D0009A660BF0D7FE0B4B186810F06DFC002385
:1069E000C1E700BF82480020009000400000044042
:1069F00000800044D41100208148002000C00550D0
:106A000000800050C82C002070B54FF00064A36ACD
:106A100003F17842B2F5C04F24D21A68134B9A4260
:106A200020D1134E337813F0FD0F02D000242046FE
:106A300070BD1048FFF7D0FE01254FF480330E4A99
:106A40000E49C2F88051CB6015600D4A1361A36AEC
:106A5000DB69984704460748FFF77EFF002CE6D124
:106A60003570E3E74FF48174E1E700BF07B0CD5E16
:106A700081480020A82C002000E100E000A0004494
:106A80000090004413B5204B1B7803B9FEE70023A8
:106A90001E4CCDE900336A4608231D49206807F0E3
:106AA00013FFF0B91B4AD2F84031D2F840211F2B16
:106AB0004FF0010310D9203A9340019A1A430192F2
:106AC00008236A461249206807F0B4FE4FF00053CD
:106AD000114A1A60FFF74CFE9340009A1A43009245
:106AE000EEE70E4B9842F1D10A4AD2F84031D2F883
:106AF00040211F2B4FF0010385BF203A9340934064
:106B0000019398BF0093DBE782480020FC1100202E
:106B100000710800008000440B020FF00BE000F051
:106B20000346054A0549106803448B428CBF4FF069
:106B3000FF301360704700BFD81100200000042010
:106B40002DE9F04F9A46564B85B01B7806460F4606
:106B50001546DDF83C909DF844B0DDF85080002BE0
:106B600000F09780072A00F296800E9B002B00F021
:106B70009280B9F1000F00F08E80129BB3F5006F88
:106B800000F38980012803D1109B002B00F0838043
:106B9000444B03EB05131B7B002B7ED0424C102291
:106BA0000021684615F0C9FF04EB45141022A7BB6D
:106BB0003946204615F0C1FF43F210036380BBF154
:106BC000000F03D1E37843F00303E370364A0E9BD2
:106BD00002EB451CCCE90193129B6901581E9DF8FC
:106BE0004C30C0F30A0003F003039B0643EA001E87
:106BF00053582E48012E00EA03004EEA0003CDF858
:106C000000A0535017D0B8F1000F2ED19CF80230DD
:106C100068F304138CF8023027E00021204615F0B9
:106C20008CFF4FF444736380BBF1000FCED1E37847
:106C300043F03003C9E713230CF1100ECCF80C30ED
:106C40009CE80F008EE80F006FF00301DCF81C20B9
:106C5000109B61F39F02012FCCF81C20CCF814305C
:106C600003D1CCF81890CCF8043000270D4A290144
:106C700002EB051342F80180159A28465A606946CE
:106C800022469F605E7301F097FF384605B0BDE86D
:106C9000F08F0748FAE70748F8E70748F6E700BF2C
:106CA00084480020D42D0020D42C00200F80FFF336
:106CB000028000F0018000F0078000F038B5124B30
:106CC00005461B78DBB1E0B110F0F0FA0F4A002363
:106CD0001146147B54B92B6001251A0101EB0313F3
:106CE0001D738C5010F0E8FA204638BD0133082B94
:106CF00002F11002EDD110F0DFFA0548F5E7054882
:106D0000F3E70548F1E700BF84480020D42D0020B8
:106D1000048000F0028000F0018000F0154B13B5F4
:106D20001868002301908DF8043010F0BFFA124B60
:106D30001C7824B110F0C0FA104802B010BD012236
:106D40001A7010F0B9FA0E4B01A81C731C7783F867
:106D50002C4083F83C4083F84C4083F85C4083F837
:106D60006C4083F87C4008238DF8073001F0F2FE78
:106D70002046E2E77CD1010884480020038000F02F
:106D8000D42D00200A4A08B512785AB107280BD82A
:106D9000084A02EB00131B7B43B1002101F0CCFE3B
:106DA000002008BD0448FCE70448FAE70448F8E777
:106DB00084480020D42D0020028000F0018000F0E3
:106DC000078000F00A4A08B512785AB107280BD894
:106DD000084A02EB00131B7B43B1012101F0ACFE1A
:106DE000002008BD0448FCE70448FAE70448F8E737
:106DF00084480020D42D0020028000F0018000F0A3
:106E0000078000F00C4B1B787BB107280FD871B1BD
:106E10000A4B03EB00131B7B5BB1094BDB6AC340DE
:106E200003F0010300200B707047064870470648C6
:106E300070470648704700BF84480020D42D0020CA
:106E400000000450028000F0018000F0078000F094
:106E50000B4A10B512780C4662B107280CD859B10C
:106E6000084A02EB00131B7B43B101F0F1FE2060E6
:106E7000002010BD0448FCE70448FAE70448F8E79E
:106E800084480020D42D0020028000F0018000F012
:106E9000078000F0184B2DE9F0411F6D5B6D1F401E
:106EA00000D5FEE701260025144CDFF85880374254
:106EB00018D02368C8F85060A3B1A16828460131F2
:106EC0006268A1609847637B012B0BD150B90C4BD2
:106ED00003EB45131A7B60F341021A731A7F60F3C8
:106EE00041021A770135082D4FEA460604F11004D5
:106EF000DDD1BDE8F08100BF00000450D42D00209A
:106F0000D42C00200020045070B5044601250B4EFF
:106F100004B970BD94FAA4F0B0FA80F005FA00F359
:106F200006EB001224EA03045368002BF0D0117B17
:106F300011B191689847EBE79847E9E7542E002094
:106F400008B5192001F0D2FB28B14FF00072074BB1
:106F5000C3F880211A601A2001F0C8FB28B14FF055
:106F60008062024BC3F880211A6008BD00E100E096
:106F700038B505460C4610F099F90022044B03EB96
:106F800005135C601A73BDE8384010F095B900BF76
:106F9000542E0020074BD3F82404D3F8202403F503
:106FA0000053104000F0553020F05020C3F820046A
:106FB000FFF7AABF00C00350074BD3F82404D3F84F
:106FC000202403F50053104000F0AA3020F0A02048
:106FD000C3F82004FFF798BF00C00350024B1968A4
:106FE000024B186807F04CBBDC110020FC1100209C
:106FF00070B59400224605460E4616F061F8431C13
:107000000AD058B922463146284615F06CFD0028B2
:10701000034808BF002070BD0248FCE70248FAE7B9
:1070200010E000F021E000F024E000F010B504468C
:1070300016F042F8431C10D088B901F0ABFE23468D
:1070400020F003002044984201D1002010BD53F8E5
:10705000042B0132F7D00348F8E70348F6E703486A
:10706000F4E700BF0EE000F021E000F024E000F0C3
:1070700008B510F010F9014B186008BD4437002026
:10708000014B186810F00BB94437002038B141B1FA
:10709000013AB2F5006F044838BF0020704703483A
:1070A00070470148704700BF037000F0027000F0A5
:1070B000104930B50A78104B2AB9C3E90022C3E958
:1070C000022201220A700C4900220C4654F8045B8B
:1070D000854208D00132042AF8D1002251F8044B2D
:1070E0001CB943F82200002030BD0132042AF5D13A
:1070F0000248F9E78548002048370020027000F078
:1071000038B504460D4610F0D1F8A3889BB223B9D8
:107110002B6010F0D1F8064838BD142263889BB26A
:1071200002FB034408342C6010F0C6F80020F3E79B
:107130000B7000F010B50446FFF7F0FD002104F1DC
:107140000800FFF7BBFD014608B1044810BD04F17B
:107150000C00FFF7B3FD0028F8D0F6E70E7000F042
:10716000F8B5044616460F4610F0A0F8A388E2884A
:107170009BB29A42054605D80023336010F09CF874
:107180001748F8BD1422238807F1100C9BB202FBAC
:1071900003433A460833174603CF674518605960E2
:1071A0003A4603F10803F6D11422386818602388A0
:1071B00028469BB202FB0343083333602388E288EE
:1071C0009BB20133B3FBF2F102FB11339BB223807C
:1071D000A38801339BB2A38010F06EF80020D0E7A3
:1071E0000A7000F07FB5012380F8303090F8363017
:1071F0009BB903682433826B013282630C4A04908A
:107200000392002202924A680192012200920A68C7
:107210004169C0680FF0EFFE07E0022B02D103685E
:107220003C33E8E7002380F8303007B05DF804FB1A
:10723000857800087FB5012380F8313090F836302A
:107240009BB902683C32836B013383630C4B04901F
:107250000393002302934B680193012300930B686F
:10726000016980680FF0ADFE07E0022B02D10268D1
:107270004432E8E7002380F8313007B05DF804FBC2
:10728000F573000890F83530022B0DD1142230230D
:10729000417F13FB0123054A9B5890F8212023FAD4
:1072A00002F000F0010070470020704730C003502A
:1072B000002313B51D4A52F8044B94F82110814263
:1072C0000ED00133042BF6D102B010BD0028FBD143
:1072D0009DF80730002BF7D0A068FFF753FDF3E7C8
:1072E00094F83530022BEFD12046FFF7CBFF637EB9
:1072F0002076022BE8D194F8323003F0FF02002B05
:10730000E2D1A0680DF107018DF80720FFF77AFDA3
:10731000237E1BB194F83330002BD7D00023A06814
:1073200084F83330FFF74EFDCEE700BF483700202A
:1073300090F8363053B9042103790A4A03F239131D
:107340005B01D150022203685A617047022B07D1BA
:107350000068816C11F0020118BF06210FF0EBBF2D
:10736000704700BF00C0035090F8363063B9012267
:1073700003685A619A69D207FCD504210379084A47
:10738000B9335B01D1507047022B07D10068836C81
:107390009B074CBF052109210FF0CDBF704700BFEF
:1073A00000C0035010B590F83630044663B904228B
:1073B00003685A619A699207FCD523790C4AB9335C
:1073C0005B011021995010BD022BFCD10068836C29
:1073D000DB074CBF052106210FF0ADFF237941F2F9
:1073E00094425B0103F1A04303F57033E9E700BF6A
:1073F00000C003502DE9F3411446D06A01A9FFF7FC
:107400007FFEA36BA36B013BA363164B984222D074
:107410000027019D2F61AF600FF048FFD5F80C8069
:107420000646B8F1000F04D0D5E9002339462046BE
:10743000C047E06A01A90FF09CFEE06A83889BB216
:107440006BB101A9FFF75CFE20460199FFF7F2FE40
:1074500030460FF031FF012002B0BDE8F08184F822
:107460003130F5E70B7000F02DE9F0410446174686
:10747000FFF70CFE88460646E8B9152001F044F9EE
:107480000546E26A93889BB213B194F83230ABB1EF
:1074900094F83630BBB923689D6915F0020527D0F2
:1074A000012384F834304744B845206844D18369C7
:1074B0009B06FCD545B33046BDE8F081002DE1D0F8
:1074C000FFF7E8FCDDE7022B12D123689D6C15F075
:1074D00002050DD0012384F8343047444745206825
:1074E00031D142F22002836C32EA0303FBD1E1E79F
:1074F0002046FFF757FF012394F8365084F83430C4
:10750000002DD0D0022D1CD094F8363003B3022BBE
:10751000D1D12068816C11F0010118BF09210FF051
:107520000AFF42F29442102123795B0103F1A04348
:1075300003F570339950BEE718F8011B0FF085FF73
:10754000B2E70025C9E718F8011B0FF0F9FEC5E7FF
:1075500010212379044A03F239135B01D150082228
:1075600023685A61A7E700BF00C0035010B5044666
:1075700080B190F832302BB9FFF784FE10B9A068C3
:10758000FFF700FC002094F832300133DBB284F8BE
:10759000323010BD0048FCE7027000F010B5044620
:1075A000A0B190F832309BB190F83230012B05D168
:1075B000FFF768FE10B9A068FFF704FC002094F8FC
:1075C0003230013BDBB284F8323010BD0148FCE7B9
:1075D0000148FAE7027000F0057000F037B590F846
:1075E00035500446022D1DD1012290F82230457EEF
:1075F000817F9A403020164B3DB900FB013303F5E3
:1076000001531A60002003B030BD012D04D100FBEE
:10761000013303F58253F4E7247E00FB0133002C91
:10762000F7D1ECE7012DEDD1037E73B911238DF86D
:107630000730FFF79BFF2A4620460DF10701FFF7B1
:1076400013FF2046FFF7AAFFDCE71323EFE700BF95
:1076500000C003502DE9F04305466D4F89B001AEDF
:107660000C460FCF0FC697E8070086E80700002DED
:1076700000F0CB8024B9674E304609B0BDE8F083F6
:1076800060220021284615F058FA2846FFF710FD21
:1076900006460028F0D1237D85F83530236885F82B
:1076A00036002B60227B2A715B4A9342E3D1292367
:1076B0006B624FF4802359498046C5E90413D4E92D
:1076C0000723AA6210805080908085F83000EB621A
:1076D000188058809880636885F831000393E389A7
:1076E00085F83300ADF81430238A0121ADF812304B
:1076F000A37C3A208DF81030E37C494F8DF816308A
:1077000005238DF8113000F0EBFB0121686A00F0D1
:10771000E7FB206801A98DF8046001F097FB1421B4
:10772000237B03F139025201B950267AA07A07EB84
:10773000431346EA0042C3F83827617AE27A41EA05
:10774000024CC3F830C7EE76E877297785F8202019
:10775000637D01216B77A37D284685F82130E37D89
:10776000AB77237E85F822300FF094FC0646002884
:1077700082D10FF09BFD237D8146032B33D1022163
:10778000227B02F1B9035B01F950042107EB421798
:1077900041F22C72236803F58053D965217EE37D85
:1077A00043EA0143BB50A27D637D43EA024341F2B9
:1077B0002872BB504FF0FF32206800F500539A64E6
:1077C000237D032B0CBF052104210FF02FFE4FF466
:1077D0004062236828465A61FFF7ACFC06464846DB
:1077E0000FF06AFD48E7022BE4D195F821000D491E
:1077F000FFF7BEFBFFF7A4FB4FF4007328462B8373
:1078000085F81A80FFF7EAFED4E7074E34E700BF99
:10781000A4D10108037000F000C00550020004006C
:1078200000C00350B1720008027000F0F0B587B0DC
:1078300005461646FFF72AFC0446F0B90493104BA0
:10784000CDE901166A46A86A01A903960593FFF7D8
:1078500087FC044688B995F8303073B92846FFF79D
:1078600083FD28460099FFF7BDFC95F83530032BC2
:1078700003D028462C76FFF7B1FE204607B0F0BDB6
:10788000017000F0F7B51446906A01A9FFF738FCC3
:10789000A36BA36B013BA363384B984230D094F8A1
:1078A0003610019D002939D123689A6C12F40072B8
:1078B00029D0334AA9602A614FF4007203F50053BE
:1078C0009A640FF0F3FCEF68064637B16A68AB685C
:1078D0002046D31A29692A68B847A06A01A90FF07F
:1078E00048FCA06A8588ADB2002D37D001A9FFF70A
:1078F00007FC20460199FFF775FC30460FF0DCFCD1
:10790000012003B0F0BD996CC80523D51D49AA60BC
:1079100029614FF4807203F50053D1E7022919D190
:107920002368DA6C12F4007209D0154A03F500538B
:107930002A610022AA604FF40072DA64C1E7D96CB0
:10794000C90507D50F49AA6029614FF4807203F574
:107950000053F2E700232B61AB60B2E7012320461E
:107960002376FFF73BFE94F8353084F83050032B34
:10797000C3D02046FFF7DCFCBFE700BF0B7000F070
:107980000D7000F00C7000F0F0B587B0044616469C
:10799000FFF77CFB054658BB0493194BCDE9011654
:1079A000059394F8363003962BBB23689B6903F04C
:1079B000020313B92046FFF7F5FC6A46E06A01A905
:1079C000FFF7CEFB054698B994F8313083B90FF034
:1079D0006DFCE36A06469B889BB233B12046009952
:1079E000FFF728FC012384F8343030460FF064FCA4
:1079F000284607B0F0BD022BDCD123689B6CD6E78C
:107A0000017000F0044BD3F88420D206FBD4D3F8E5
:107A10008400C0F3811070470040005038B5104B0F
:107A20000546D3F880300C4603F00303022B0BD03D
:107A3000032B0DD0012B0FD1FEF708FE0E2305B14D
:107A4000286004B1236038BDFEF74AFE0723F6E73D
:107A5000FEF7F6FD0623F2E700231846EFE700BF26
:107A60000080005038B5184B0546D3F820010C466D
:107A700000F00700062823D8DFE800F0040A0E16FD
:107A8000121A1E00012305B1286004B1236038BD1D
:107A9000FEF7D6FD0523F6E7FEF708FE0323F2E71F
:107AA000FEF71EFE0723EEE7FEF716FE0223EAE7C7
:107AB000FEF7C6FD0623E6E7FEF7F8FD0423E2E73E
:107AC00000231846DFE700BF0080005038B5174B91
:107AD0000546D3F828310C4603F00703013B052B7C
:107AE00020D8DFE803F003131B0F0B17FEF7A8FDE8
:107AF000052305B1286004B1236038BDFEF7A0FD61
:107B00000623F6E7FEF7ECFD0723F2E7FEF7CEFDCE
:107B10000323EEE7FEF7CAFD0423EAE7FEF7DCFDE8
:107B20000223E6E700231846E3E700BF0080005089
:107B300073B50D460021114B0191D3F880410646E3
:107B400004F00304022C13D0032C0CD0012C13D10D
:107B500001A8FFF787FF10240EB1019B336005B128
:107B60002C6002B070BDFEF7BBFD07240190F3E767
:107B7000FEF7B2FD0190EFE70C46EDE70080005004
:107B8000002337B50193164B0546D3F820320C4637
:107B900003F00703042B21D8DFE803F0030B1116D1
:107BA0001B0001230DB1019A2A6004B1236003B0C8
:107BB00030BD002101A8FFF789FF1223F2E7FEF78D
:107BC0008FFD07230190EDE70FF096F90A2301904E
:107BD000E8E7FEF7C7FD09230190E3E70023E1E7AB
:107BE0000080005038B5104B0546D3F840310C46A4
:107BF00003F00303022B0BD0032B0DD0012B0FD16D
:107C00000FF07AF90A2305B1286004B1236038BD6A
:107C1000FEF7A8FD0923F6E70FF071F90C23F2E750
:107C200001230020EFE700BF00800050002337B59C
:107C30000193164B0546D3F860320C4603F0070358
:107C4000013B032B1FD8DFE803F0020E19140021BB
:107C500001A8FFF707FF10230DB1019A2A6004B1B4
:107C6000236003B030BD002101A8FFF7BBFF112343
:107C7000F2E7FEF735FD07230190EDE7FEF72CFD57
:107C800002230190E8E70023E6E700BF00800050F0
:107C9000002337B50193164B0546D3F894320C46B2
:107CA00003F00703013B032B1FD8DFE803F0020EAC
:107CB0001914002101A8FFF7D5FE10230DB1019A78
:107CC0002A6004B1236003B030BD002101A8FFF792
:107CD00089FF1123F2E7FEF703FD07230190EDE78B
:107CE000FEF7FAFC02230190E8E70023E6E700BF75
:107CF0000080005038B5144B0546D3F800020C46FE
:107D000000F0070004281BD8DFE800F003090D117C
:107D10001500012305B1286004B1236038BD0FF0C0
:107D2000EBF80A23F6E7FEF71DFD0923F2E70FF053
:107D3000E6F80C23EEE7FEF7A3FC0F23800AE9E741
:107D400000231846E6E700BF0080005038B5144B0A
:107D50000546D3F808020C4600F0070004281BD89B
:107D6000DFE800F003090D111500012305B12860BB
:107D700004B1236038BD0FF0BFF80A23F6E7FEF721
:107D8000F1FC0923F2E70FF0BAF80C23EEE7FEF757
:107D900077FC0F23800AE9E700231846E6E700BFD7
:107DA0000080005038B5104B0546D3F840320C46E1
:107DB00003F00303022B0BD0032B0DD0012B0FD1AB
:107DC0000FF09AF80A2305B1286004B1236038BD8A
:107DD000FEF7C8FC0923F6E70FF091F80C23F2E751
:107DE00001230020EFE700BF0080005038B5104BA2
:107DF0000546D3F860310C4603F00303022B0BD089
:107E0000032B0DD0012B0FD10FF076F80A2305B10B
:107E1000286004B1236038BDFEF7A4FC0923F6E70F
:107E20000FF06DF80C23F2E701230020EFE700BF0D
:107E300000800050B0F5207F1FD009D8B0F5007F3A
:107E400015D003D868B1B0F5C07F0AD000200CE08F
:107E5000B0F5607FFAD10B4BD3F88000C0F301106E
:107E600003E0084B186FC0F3033001307047054B37
:107E7000D3F89000C0F30460F7E7024B186FC0F32B
:107E80008020F2E70080005002464FF48030104B13
:107E900010B598660020FFF7CDFF504341F67132D0
:107EA0000C4BDC69DA635A6804F4803422F4401223
:107EB00059B90949884294BF0020012000050243B6
:107EC0005A600CB10022DA6310BD0449F2E700BF2A
:107ED0000090005000000350005A6202002D310152
:107EE000430905D0012B0CD0022B084B18BF0023EF
:107EF00000F01F0039B103F58053012282401A605F
:107F00007047034BF4E703F50053F6E76880005031
:107F1000648000501FB5002180280446CDE900117F
:107F200000F0A58035D85E2846D85E2844D8DFE822
:107F300000F0A24343434343434343434343434348
:107F40004343434343434343434343434343434301
:107F50004343A2AAA2AABABABABABAAAC44DDA715B
:107F60004DAAAAAA4343434343434343AAAAAA7937
:107F7000E4AA43434343434343434343434343BA52
:107F8000A2A2A2DF4D4DE9885EBF4343434343991C
:107F9000A200B0F5B06F00F090802DD8B0F5207F32
:107FA00071D00CD8B0F5C07F65D0B0F5007F65D03A
:107FB000B0F5807F00F08680009804B010BDB0F569
:107FC000607F6BD00DD8B0F5407FF5D1FEF758FB40
:107FD00002464FF42070FFF72DFFB2FBF0F252087B
:107FE0005AE0B0F5806F5ED0B0F5A06FE4D100210B
:107FF0006846FFF7C5FDDFE7B0F5106F78D016D8FB
:10800000B0F5E06F79D00AD8B0F5C06F6BD0B0F59D
:10801000D06FD1D100216846FFF76CFECCE7B0F5F8
:10802000F06FC9D100216846FFF7E0FEC4E7B0F564
:10803000406F3DD013D8B0F5206F63D0B0F5286FF6
:10804000BAD10021324B0391D3F8703203F003030D
:10805000012B02D103A8FFF7C5FD039B3CE0B0F55F
:10806000486FA9D100216846FFF712FEA4E7FEF78A
:10807000EDFA0090A0E7FEF703FBFAE7FEF7E6FA59
:108080000246204604E0FEF7FBFA02464FF4207059
:10809000FFF7D0FEB2FBF0F200928DE701A8FFF7E8
:1080A000BDFC019AEDE700216846FFF7DBFC83E7A2
:1080B00000216846FFF70AFD7EE700216846FFF7CA
:1080C00037FD79E74FF0E02302911B695B0705D587
:1080D000FEF7D6FA0290029B00936DE703A902A86F
:1080E000FFF780FDF7E700216846FFF77BFD63E7B8
:1080F00000216846FFF72AFE5EE700216846FFF789
:1081000051FE59E700216846FFF790FD54E700BF94
:108110000080005008B58020FFF7FCFE034B98421A
:108120009EBF4FF48032024B1A6708BD005A6202AC
:1081300000A000501FB503460020B3F5807F0190DA
:1081400000F0C18064D85D2B55D84C2B07D82D2B5F
:1081500048D8232B2CD8019805B05DF804FB4D3B83
:10816000102BF8D801A252F823F000BFBD820008FE
:108170005781000857810008578100087382000862
:108180005781000857810008418300089182000848
:10819000378200083783000857810008578100089C
:1081A0005781000857810008578100084B83000859
:1081B000243B092BCFD801A252F823F0BD8200083E
:1081C000BD820008BD820008BD820008BD82000893
:1081D00057810008B38200085781000853820008C5
:1081E000F38200083D2B7FD03E2BB4D1002001A9A3
:1081F000FFF7D8FDAFE7802BADD1594B1B6F03F0D4
:108200000703013B032BA6D8DFE803F0514E858D11
:10821000B3F5F06F68D021D8B3F5B06F49D00FD85F
:10822000B3F5607F00F0838095D3B3F5806F45D0C0
:10823000B3F5A06F8FD1002001A9FFF7A1FC8AE759
:10824000B3F5D06F55D0B3F5E06FCFD0B3F5C06FB5
:1082500081D1002001A9FFF7C5FC7CE7B3F5206FB1
:108260006ED00BD8B3F5086F48D0B3F5106F7FF41C
:1082700072AF002001A9FFF769FD6CE7B3F5406F0D
:1082800059D0B3F5486F60D0B3F5286F7FF463AF72
:10829000334BD3F8703203F00303012B5AD0022B77
:1082A0000CBF1523002300E00523019353E70223AD
:1082B000FBE7002001A9FFF73BFC4CE7002001A9E8
:1082C000FFF7D0FB47E74FF0E02302901B695B0705
:1082D00005D5FEF7D5F90D230393039BE5E703A925
:1082E00002A8FFF77FFCF8E7002001A9FFF77EFD59
:1082F00031E7002001A9FFF7FDFC2CE7184BD3F86C
:10830000003103F00303022B07D0032B09D0012B0C
:108310000BD1FEF7CBF90323C7E7FEF723FA0923B6
:10832000C3E70EF0E7FD0823BFE70123BDE701A97E
:10833000FFF774FB0FE7002001A9FFF7C7FB0AE76F
:10834000002001A9FFF772FC05E7002001A9FFF753
:108350009FFC00E7002103A8FFF744FC1123A4E7DA
:10836000008000504FF48012034B5A664FF4803265
:10837000024B9A62704700BF009000500050005AB4
:1083800038B504468020FFF7D5FE032800F083802F
:108390004FF48012524B4FF0A0615A6645F60E0220
:1083A000504BC3F88020504A91624FF4803102F55F
:1083B000805291629A6DD203FCD4996D11F0804184
:1083C000FBD1D4E90002120542EA0062E07B0243DD
:1083D000207B42EA0042607B42EA0032A07B42EA14
:1083E00080121A619869D4E90452120642EA856241
:1083F00000F000400243A07EE57E0243207E42EA78
:108400000042607E42EA00229A611A6AE06922F024
:108410000F0242EA8502354D00283DD11A6294F8D8
:108420002420996A94F82000D200294042EA4012A0
:108430000A4394F8211042EA011242F480329A620F
:108440002B49284A936D31EA0303FBD14FF0807129
:10845000254881621369A56823F4700343EA055334
:1084600013614FF00043836194F822300BB9214B24
:10847000996294F823303BB94FF480321D4B9A62D5
:10848000184A936D5B00FCD494F825301BB1154B52
:10849000194AC3F8802038BD024342F0080202287E
:1084A0001A6208D119614FF40852996113484FF4C8
:1084B0007F410EF0B9FE0B4994F822308A6A94F895
:1084C00020001B062A4043EA4013134394F824205B
:1084D00043EAC20394F8232043EA02438B62D3E7C2
:1084E000009000500040005A0050005AC7FFFEFEA6
:1084F000030001000060005AF1A7FFFF3440005A5A
:10850000014B93F900007047D6120020F0B5D0E976
:1085100001434FF400061A4A4178057856664FF435
:10852000D156022702F5B8325662164E4F297760AF
:108530004FF0010728BF4F2106F580567760166976
:10854000F603FCD441EA052151611B01417B43EA5A
:1085500004230B43017B43EA41039360C37B817B8C
:108560001B0143EA4113417C0B43017C43EA410375
:108570005360837C13B16FF4D1535362F0BD00BFDD
:108580000090005000100250014B1880704700BF4F
:10859000CA120020014B1880704700BFC81200208B
:1085A000B0F5207F10B50C465DD008D8B0F5007F3F
:1085B0004ED003D8C0B1B0F5C07F15D010BDB0F516
:1085C000607FFBD12C4B4C1ED3F8FC202B4912F0C2
:1085D000807F4FEA041427D1D1F8803023F0300394
:1085E0002343C1F88030E9E70EF02DFE0EF039FE8E
:1085F0004FF48031224B214A1967136F013C23F459
:10860000704343EA04331367FEF73AF80446FFF772
:10861000F9F9C0F1020120460EF01DFE00F042F80B
:10862000BDE81040FFF776BDD3F8FC2022F0807241
:10863000C3F8FC20D1F8802022F030022243C1F898
:108640008020D3F8FC2042F08072C3F8FC20B5E70C
:108650000A4A4C1ED2F8903023F0F85343EA0463E0
:10866000C2F89030AAE7054A4C1E136F23F48063CA
:1086700043EA84231367A1E700ED00E00080005087
:108680000090005008B50121022000F079F80EF0AA
:10869000DAFD0EF0E6FD4FF48032014B1A6708BD9B
:1086A0000090005008B54FF4C070FFF733FCBDE8F0
:1086B00008400449884294BF012102214FF42070F0
:1086C000FFF76EBF80F0FA020028ABBF00F16040F8
:1086D000054B00F5614000F00F00ACBF90F80003BF
:1086E000185C0009704700BF14ED00E0054B42091B
:1086F00053F8223000F01F0023FA00F0C04300F0CE
:108700000100704700E100E0014608B5EFF3108377
:10871000DB0702D50122104608BDFFF7E7FF02463E
:108720000028F7D10846FFF7CFFF0146EFF311838A
:1087300013B1B0EB131FEDD2074B5B68C3F3080313
:10874000002BE8D0103B58B2FFF7BEFF88428CBF29
:1087500000220122DFE700BF00ED00E0024A536B78
:108760000342FCD1704700BF00400950034A017921
:10877000D36E23F030030B43D366704700400050A4
:10878000F8B504461C4BD3F88420D106FBD4D3F8AB
:108790008430C3F381139C422CD0FDF757FF012C8A
:1087A000064602D121460EF056FD0EF074FD4FF044
:1087B0000072124B07465A6620460EF080FD4FF4B9
:1087C00080630D4D621E93402B676B6E9A0103D43C
:1087D000D5F884309B060AD538460EF060FD022C91
:1087E00008D13046BDE8F84000210EF034BDD5F880
:1087F0008430EAE7F8BD00BF004000500060005040
:1088000010B50C4608B9FDF721FF074B21461B7830
:108810003BB1064B984204D80120BDE81040FFF759
:10882000AFBF0220F9E700BF86480020005A62026D
:108830004FF0004238B5244B244C5A664AF6CD33EB
:10884000656C014605F00105236428BB0120FFF794
:1088500085FF6368DB0715D51D4B586008461D4B27
:10886000226BD2070CD4984208D1072415B1174BBC
:10887000194A1A6413F085FB204638BD0130EFE732
:108880009842F2D00024F1E70132236B13F0080381
:1088900005D08A42F8D1E8E700220E49F5E78A427E
:1088A000E3D020210A4A91620121A2F58052516051
:1088B0000649084A886A800603D49342D5D001331A
:1088C000F8E79342DDE700BF0090005000400950F8
:1088D0000060095040420F003254FFFF4FF0004249
:1088E00038B5164B01465A664AF6CD33144C154A34
:1088F000656C236443780B205B0043F00103D36372
:10890000FFF72CFF63688A7823F4F87343EA0213B5
:108910006360CA784B7943EA0223A3600A798B79B2
:1089200043EA022323610878FFF782FFEB0744BF85
:10893000054B236413F025FB012038BD0090005047
:1089400000400950004000503254FFFF4FF00042F9
:10895000124B70B55D6E03F580535A664AF6CD33FF
:1089600004460F4980204E6C0B64FFF7F7FE0B6A3C
:1089700023F00F030F2C94BF234343F00F030B622C
:10898000F30744BF074B0B64002DA2BF4FF000421A
:10899000054B5A6613F0F5FA70BD00BF0080005019
:1089A000004009503254FFFF00A000504FF0004239
:1089B000104B70B55D6E03F580535A664AF6CD33A1
:1089C00004460D4980204E6C0B64FFF7C7FE0B6A0E
:1089D00023F4F85343EA04230B62F30744BF074B25
:1089E0000B64002DA2BF4FF00042054B5A6613F0F6
:1089F000C8FA70BD00800050004009503254FFFF9B
:108A000000A00050072A2DE9F041154698464FF086
:108A1000030401F003072DD89600B44000FA06F2D3
:108A200021461C480EF091FC21461B4807FA06F22D
:108A30000EF08BFC194B1A499DF81800B8F1000F85
:108A400018BF1946012303FA05F50D60154B1649A9
:108A5000002818BF0B461D60144B9DF81C00C3F87E
:108A60002054103103F22443002818BF0B461D6028
:108A7000BDE8F081A2F10806B600B44000FA06F2A3
:108A800021460B480EF061FC21460A4807FA06F21F
:108A9000CEE700BF00C4035008C4035010D40350F5
:108AA00010E4035014E4035014D4035000E00350C6
:108AB00004C403500CC403502DE9F04105460F4691
:108AC0001E4690464AB101233022194C8B4002FBCE
:108AD000004436B304F5825423600F21072F05EBC1
:108AE000450388BFA7F108044FEA0313114895BF57
:108AF000BC00A40004330C3308FA04F2A14018446B
:108B00000EF023FCB8F1000F09D101233021084AEF
:108B1000BB4001FB05223EB102F582521360BDE865
:108B2000F08104F50154D7E702F50152F6E700BFE2
:108B300000C0035030C00350044A054B002908BF51
:108B40001346012282401A60704700BF4010045053
:108B50004020045010B5012104462020FFF7C0F941
:108B600001212120FFF7BCF90122114B5A60227824
:108B700012069A606178A27842EA01429A61FF2265
:108B80009A6200229A631A644FF000425A654FF0CD
:108B9000FF324FF4001103F500531A65054AC2F87D
:108BA0008011E3781B01DBB282F81533116010BD30
:108BB0000000045000E100E0F8B50125C3B2D1F88F
:108BC00000E091F80AC00F7B0C469D40CB7A1D490E
:108BD0001D4E0D65810001F1A04101F58821C1F80C
:108BE00004E04FF0300E0EFB00601B05617B43EA92
:108BF0000C4343EA475322F003020166C365026750
:108C00000EF054FB736D2B437365237A13B1336CF1
:108C10002B433364637A13B1B36B2B43B363227971
:108C2000A37943EA0243074A93616179E37943EA0E
:108C3000014306498B61044B55639D64BDE8F840D0
:108C40000EF03ABB00200450000004500010045005
:108C5000F8B50125C3B204469D400EF027FB302233
:108C6000094B1E6D5F6B02FB04335C6E0EF024FB40
:108C70003D4206D1C4F30A1008B9354200D1013093
:108C8000F8BD0020FCE700BF000004504FF4803224
:108C9000054B9A6641F6713203F51C33DA63012203
:108CA00003F50053DA6070470090005041F67132CE
:108CB0000121064BDA6303F50052D1600022DA632A
:108CC0004FF48032A3F518339A66704700000350C2
:108CD000013831289ABF024B185C0020704700BF52
:108CE000E0D10108021E30B54FF000000CBF102586
:108CF000042547F60774084952B9831D51F82330FB
:108D0000234023B101308542F6D14FF0FF3030BD12
:108D100000F11603F2E700BF0080035038B5C2F33C
:108D20000625044602F0070241B942EA052242F450
:108D300040220634074B43F8242038BD114628460C
:108D40000EF012FB02462846FFF7C2FF163442EA35
:108D50000022EFE700800350014BD3F894007047E6
:108D6000004000504FF48032064B5A6603F5E6236C
:108D70009B69C3F38512827003F03F021B0B4270A4
:108D80000370704700900050014B986CD96C70478D
:108D90000080E00F0120034B9B680A3303F01F03A0
:108DA000984070470080E00F70B5054616461C4697
:108DB00021B94FF42070FFF7ADF80146402C1BD0CD
:108DC00003D8DCB1202C1BD070BD602CFCD1042357
:108DD00003FB06F2530803EB4113B3FBF2F3094A1A
:108DE000203B02EAC303AA6822F06002AA60AA68D4
:108DF0001443AC60EB61E7E70623E9E71023E7E7FC
:108E00000823E5E7F8FF7F00012100F5805310B546
:108E1000596040F6AA6341F2050243610023094C00
:108E20008360C365C26000F500520361C361C3641F
:108E30009464054C8365A04204BF0365436551609B
:108E400010BD00BFFFFF010000C0055070B50D460A
:108E5000FFF7DAFF012300F580567360AB7C044610
:108E60001BB1836843F080438360EB7C5BB1244B90
:108E70009C4202BF2A7DA3F51033C3F8C821E36DDD
:108E800043F08003E3652A8A6B7B20461343EA891B
:108E90001343E3602B7BD5E90112FFF785FF6B7D60
:108EA0001BB1A36843F48033A360AB7D1BB1A368FF
:108EB00043F40043A360EB7D2A7E1B07120502F4F6
:108EC000E00203F0E0431343A3656B7E9A1E012A80
:108ED0004FF0020209D80B49032BC1F8202709D112
:108EE0000423F3652B78636170BD0749012BC1F83A
:108EF0002027F4E7042204F50053DA65F2E700BF07
:108F000000C0055000D0035000E00350034B5A68E6
:108F1000D20702D5DA69002AF9D1704700800A50D9
:108F2000054B9A689107FCD45A689207F9D4DA691C
:108F3000002AF6D1704700BF00800A5008B5FFF73D
:108F4000E5FF0222014B1A6108BD00BF00800A50F4
:108F500008B5FFF7E5FF0122024B03F580514A6097
:108F60001A6108BD00800A5008B5044B59680129F0
:108F700003D1FFF7E3FF024B596008BD00800A50A0
:108F800000A00A5010B5064CFFF7CAFF6368012B1A
:108F900003D1FFF7E9FFFFF7C3FF0378E36010BDDC
:108FA00000800A50B8B94A680B7812B1127843EAC7
:108FB000C2034A7843EA42038A6812B1127843EA4C
:108FC00082138A7843EA8203CA6812B1127843EAAC
:108FD0004223014A9364704700800A5008B9014B4C
:108FE0005964704700900A5008B9014B59647047A2
:108FF00000A00A5008B9014B1964704700A00A503C
:1090000010B9024B186C70470020704700800A505E
:1090100048B911B1012903D07047044BD86C70478F
:10902000024B186D70470020704700BF00800A5047
:1090300040B911B1012903D07047034BDA6470477E
:10904000014B1A65704700BF00800A5038B50446CE
:10905000054D12F0ABFF0FCC0FC594E8030085E877
:109060000300002038BD00BF5837002047F6FF73CB
:109070009A42F0B56FD002296FD8394B5B5C012B57
:109080006BD8384DDF0005EBC30415F83330A178F9
:10909000012B13D10025E078401AA84202D80844D9
:1090A000C0B2F0BD431B6668A0EB530336F91360F2
:1090B0009642D4BF1D4603F1FF30EEE760680028FA
:1090C000EFD0B0F90040944204DBB0F90240944282
:1090D000B8BF144683883D44FF2B19BFC8224FF008
:1090E000280CB0F90620B0F908C0A2EB04030CBFAD
:1090F0000126002693FBFCF333446E781BB29E429C
:1091000001DD002B01DA731E1BB24FF47A7C0133B0
:109110009BB2071D5D1E2DB24FEAC50E00EBC505C3
:10912000EA88AD689E4214FB025222EAE27202F122
:109130005C02B2FBFCF204DD37F833500133954298
:10914000E8D200EB0E039888904228BF1046884270
:1091500038BF0846A4E7FF20A3E70020A1E700BF2F
:1091600012D20108583700200229F0B555D82C4BEF
:10917000585C012851D82B4C04EBC00114F8300086
:109180004B6801280FD1C8788C78904294BFC4EB0B
:109190000001C4EB0201001BCAB28242C8BF002218
:1091A00033F91200F0BD002B37D08878904202D3FB
:1091B000B3F90200F6E7CC78B3F900009442F1D994
:1091C0004C789988013CA1F1FF06714203F1040536
:1091D000E4B2714103F10C07CEB2B44216D805EBEC
:1091E000C1014FF47A756A43B1F902404968521AD5
:1091F00004EBD47102EB610292FBF4F29042D1DBFA
:10920000B3F902009042CDDC10B2CBE737F831C0A1
:109210004E1C9445E3D33146DEE70348C2E700BF66
:1092200012D20108583700200080FFFF0148FFF7E5
:109230000DBF00BF18D201087FB50222084B0949B3
:10924000CDE901234FF00073CDE90313072301A9F2
:109250004FF0FF30059312F00FFF07B05DF804FBED
:10926000006A1800000206004FF48062014B0020E3
:109270009A667047009000504FF48062014B0020C6
:109280009A66704700A0005008B5B0B14FF48062F4
:109290000B4B9A660EF0ADF84FF098435A6CD20221
:1092A000FCD54FF48062586D064B10F470209A661E
:1092B00004D0BDE808400EF0D8B8212008BD00BF9A
:1092C0000090005000A000502DE9FF474FF000082B
:1092D0000E4617460446CDF80080002859D022B922
:1092E0000025284604B0BDE8F087002951D032F0AF
:1092F000030902F0030A1FD04FF0E063C0E9003811
:1093000001230191C0F808800293C0F81C8049F045
:10931000005301A903930EF059F8494620460EF078
:109320005FF82046FFF7B0FF054628B14A464146A0
:10933000304613F002FCD4E7BAF1000FD0D04FF062
:1093400000084FF0E063C4E900380123CDF804D0F1
:109350000293114B204601A9C4F80880C4F81C8070
:1093600003930EF033F8042120460EF039F820461E
:10937000FFF78AFF054608B13A46D8E7009A4E44FF
:10938000EB00013522FA03F3AA4506F8013BF7D1B9
:10939000A6E72125A5E700BF040000202DE9F04144
:1093A000012905460E4690461F4692B04AD80468E9
:1093B00024F04003802B02D0B4F5807F45D11C22DD
:1093C00000210BA813F0B9FB234A244B0121012EE5
:1093D00008BF13460A932B1D0193E408204B44F069
:1093E000005402910AA80394CDF8108005910693C9
:1093F0000797089101A909930DF0DEFF04A90AA8B7
:109400000DF0DAFF07A90AA80DF0E0FF29680AA805
:10941000C9080DF0E5FF10210AA80DF0E1FFFFF7E4
:1094200023FFA8B90AA80DF0E4FF4FF098435A6C47
:10943000D202FCD55C6DFFF71FFF04F4702012B060
:10944000BDE8F0816FF02000F9E76FF07100F6E7FA
:109450004FF0FF30F3E700BF0001000400010104FA
:109460001000002030B5154B87B00293144B0390C9
:10947000049346F611030D46059300F023F81428D3
:10948000044616D168460EF096F84FF0A843032222
:1094900002A95A6319601D619A63DA6B9207FCD1C5
:1094A000142C02D168460EF094F800F03FF8044600
:1094B00001E00028E9D0204607B030BD7037002019
:1094C0000400002038B5164B5A6E42F004025A666A
:1094D000D3F8802242F00102C3F88022114B5B686E
:1094E000C3F3080343B14FF0A842D36B13F0430F0B
:1094F000FBD11424204638BD4FF0A843DC6B14F098
:109500004304FBD1084D2B681BB90421284602F007
:10951000E1FD2B68013343F000432B60EAE700BF15
:109520000080005000ED00E070370020014B00206B
:109530005B68704700ED00E007B5094B18689A8832
:109540009B7900906846ADF804208DF80630FFF74F
:10955000C5F90C20FFF7FAF9002003B05DF804FB11
:1095600070D8010813B50024064A6846536F43F0CB
:109570000103536700948DF80440FFF7F7F8204685
:1095800002B010BD0040005030B58BB06C46174D96
:109590000FCD0FC40FCD0FC495E8030084E803007E
:1095A000134BD3F84C2112031CD5A3F5FE431C88A2
:1095B0004FF6FF739C4208BF64248DF81940FEF7F4
:1095C0009FFF204480F308008DF818000948FDF73C
:1095D00073F86846FEF7D4FE3220FEF7DBFF00206A
:1095E0000BB030BDD3F85041E4B2E6E778D80108BB
:1095F0000080E00FC017530230B5094D87B001ACB1
:109600000FCD0FC42B6801A8236025238DF80530EA
:10961000FEF77CFF3220FEF7B7FF002007B030BD19
:10962000A0D801086FF00403502110B50A480B4C74
:1096300013F0800F03F1010207D123444C2A83F871
:1096400000131346F4D1002010BD03F00F03043BB8
:10965000034419761346EBE700ED00E000E100E07B
:1096600000F00CB800F00AB800F008B800F006B836
:1096700000F004B800F002B800F000B872B61EF0B6
:10968000080F09D01EF0040F0DD0DFF850E0AEE84F
:10969000FF1F6FF002000CE0DFF840E0AEE8FF1FB4
:1096A0006FF00E0005E0DFF834E0AEE8FF1F6FF06A
:1096B00006006946EFF309828EE8070086460848EF
:1096C000084C854501D3A54501D384F3088802F0F1
:1096D00009FC84F3088802F0E7FB0000001000207A
:1096E0004000002000100020BFF35F8F074B5A6A34
:1096F00022F480325A62D3F8942022F00102C3F897
:109700009420BFF34F8FBFF36F8F704700ED00E0E1
:1097100070B52948294CFFF7E7FF8442284D2949B5
:1097200019D1D5F8C03023F0FF0343F0A003C5F8EA
:10973000C0304FF080430A68214D234EC5F8982071
:1097400043F0010301328442C5F89C60C5F8A030A3
:109750000A601ED00DE0D5F8C02020F01F03203B8A
:1097600022F0FF0242F0A002B3F1005FC5F8C02072
:10977000E1D2164B0A68124823F01F0343F003039B
:10978000C0F89820C0F89C30114B0132C0F8A030CE
:109790000A60BFF35F8F0522094BC3F894205A6A11
:1097A00042F480325A62BFF34F8FBFF36F8FBFF323
:1097B0004F8FBFF36F8F70BDE01200208C1400201C
:1097C00000ED00E07437002003000020AB140020FF
:1097D000E1FFFF3FF8B51446FFF786FF1F2C27D99E
:1097E0000027C2062A4D1CBF20F01F0020302A6827
:1097F000CB06284B18BF21F01F01FCB2A2422BD888
:10980000D3F8C04020F01F0024F47F4444F4807457
:1098100021F01F01C3F8C04040F00300C3F89820B6
:1098200041F003010132C3F89C00C3F8A0102A6084
:109830000020BFF35F8F0522164BC3F894205A6AAD
:1098400042F480325A62BFF34F8FBFF36F8FBFF382
:109850004F8FBFF36F8FF8BDC3F89840D3F89C408B
:10986000D3F8A06024F01F04A04226F01F0601D107
:10987000B142DDD0B04201D8A14207D2D3F898401E
:10988000013724F0FF04C3F89840B6E72820D0E75A
:109890007437002000ED00E030B50E4C41612368C4
:1098A0008BB9206083600DE0891A9A681D4641617A
:1098B0006AB113465A698A42F6D935B1A860521A7C
:1098C00083605A6130BD0025F4E72060F7E79860B7
:1098D0008260F7E78037002038B500F069FA00258C
:1098E000084B094C1A682368C31A2AB123B151697D
:1098F000994203D3C91A5161206038BD55615B1A82
:109900009268F2E7803700207C37002038B5134D8D
:109910002B685B6993B1124A022014681C440DF055
:10992000B9FE204600F04CFA00230E492A680B705D
:10993000D088800709D501230B7038BD02200DF0B7
:10994000A9FE022000F08AFAEEE79268002AF4D01D
:1099500050690344012BEBD9EFE700BF80370020AB
:109960007C3700208848002070B516469DF81420EA
:10997000C0E903360271049ABDF818300260002273
:1099800004460D468260C380EEB900F011FA284407
:10999000A0619DB12E460DF07EFC0546FFF79CFFB1
:1099A00031462046FFF778FF104B1B68A34201D1D8
:1099B000FFF7ACFF28460DF072FC02E0E36865613A
:1099C0007BB9002070BD00F0F3F93044A061002D98
:1099D000E0D1E3686561002BDDD02046216898471F
:1099E000D9E7204621689847EBE700BF8037002081
:1099F00000220C490B687BB183420AD183687AB19B
:109A0000936083681BB15A6941690A445A61002016
:109A100070471A469B68EEE70028EFD00220704797
:109A20000B60EEE78037002070B50DF03FFC144E60
:109A300005463478FCB9134B1C60134B1C60134B68
:109A40001C8000F083F901200DF024FE0DF056FE7D
:109A50000F4B0246186020B928460DF02DFC23203C
:109A600070BD234640F2E7310A480CF0D9F90A4BA1
:109A700018600123337028460DF01EFC0020EFE72C
:109A800089480020803700207C3700208047002054
:109A90008437002018FCFFFF7837002070B504469B
:109AA00040B30DF0F8FB144E0546FFF715FF306884
:109AB000A04209D02046FFF79BFF0446B0B12846DC
:109AC0000DF0EDFB204670BDFFF792FF0446002825
:109AD000F5D133683BB9022000F0AAF928460DF011
:109AE000DEFB0024EEE7FFF711FFF7E73368002BFA
:109AF000F4D1F0E72224E5E78037002038B50C46A2
:109B00000546A8B1A1B100230B700DF0CFFB0121D8
:109B1000084B1B6833B90DF0CFFB002038BD9D42C8
:109B200004D121702278002AF9D0F4E79B68F1E78C
:109B30002220F3E78037002070B50DF0B7FB064612
:109B400000F036F9084B04461D880120ADB20DF037
:109B5000AAFD18B100F02CF90446013530460DF08D
:109B6000ABFB2046294670BD80470020F8B50C4B62
:109B700005461B680E4683420FD3002440F2E730AF
:109B80002146084B4FF47A721F680023E5FB07015A
:109B90000CF046F930602046F8BD2120FCE700BFFC
:109BA0007837002084370020014B1868704700BFC9
:109BB0007837002038B5154B14468342144B8B413F
:109BC00021D3144B1A68F2B14FF47A75A0FB050348
:109BD00005FB0131531E134211D1B2FA82F2C2F1D8
:109BE0001F05531CD24301FA03F3E84021FA02F2A5
:109BF00018431043E940C4E90001002038BD0023A8
:109C00000CF00EF9F7E72120F8E700BFEFA7C64BED
:109C10003789410084370020C2072DE9F047044608
:109C20000BD5474A138801339BB21380FFF754FECC
:109C3000444B1B680BB1FFF769FEA3077ED50DF0FF
:109C400035FB4FF0000905464E46FFF745FEC84676
:109C50003C4F3C680CB163698BB100223A4B012E3A
:109C60001A7003D119F0020F18BF1E70002C61D0BA
:109C7000FFF74CFE2846BDE8F0470DF01DBB23461C
:109C80005A693AB91A792179914288BF1C469B6872
:109C9000002BF5D128460DF00FFB2569DDB100F052
:109CA00087F8A269A0EB02094FEAE9734D4578EB0A
:109CB000030311DA23691344A361E368B4F806903F
:109CC000013613B12046216898470DF0EFFA05469A
:109CD000FFF702FEBDE7A9460DF0E8FA82462046EE
:109CE000FFF786FE50460DF0E7FA2369002BE4D01B
:109CF000A38BB5EB090533B1E28B13449BB2B3F5EB
:109D00007A7F0FD2E3830DF0D1FA814629462046AF
:109D1000FFF7C2FDA369226948461344A3610DF011
:109D2000CBFACAE7A3F57A73E383A369013D013B4C
:109D3000A361E8E7022000F07BF89BE7BDE8F0872D
:109D400080470020803700208748002010B501217F
:109D5000002486B03E20ADF80810CDE903448DF80C
:109D600004408DF80A400594FEF7BAF801A8FFF701
:109D700009F9204602A98DF80840FFF713F920469B
:109D80000F21FFF731F90F212046FFF733F9FFF7D5
:109D9000DFF8FFF7BBF80822034B9C61034BC3F8C5
:109DA00088219A6006B010BD00800A5000E100E0F2
:109DB00008B5FFF7ABF8014B986908BD00800A5061
:109DC000F8B504460DF067FA0746FFF79FF8164B03
:109DD0009D690DF05BFC06460020FFF711F9830733
:109DE00004D4731B032B01D8AE420FD10021631B97
:109DF000022B98BFEC1C0846B4F1FF3F2CBF224653
:109E0000621EFFF715F902200DF044FC38460DF0F4
:109E100046FA064A137833B103498B6C43F00103C9
:109E20008B6400231370F8BD00800A50D712002005
:109E3000830700F0010109D50122064B41F0020120
:109E40001A70054A936C23F0010393640020FFF716
:109E5000CBB800BFD712002000800A50830742BF52
:109E60000222014B1A64704700900A5013B5144641
:109E700022B902B0BDE810400DF0A9BE5388128887
:109E80009A420ED20023012200934FF0FF310A4B79
:109E900011F0D3FF00B1FEE723880133238002B025
:109EA00010BD002BFBD00022044B1A7002B0BDE89D
:109EB000104011F0D0BF00BF6D9E00088A480020FE
:109EC00030B585B00446084603A91546FFF74EFE97
:109ED00040B90123044ACDE9000303992B462046EB
:109EE0000DF0B0FB05B030BDED9E000838B505465D
:109EF0000C4619B9BDE838400DF069BE4B880A8898
:109F00009A420CD2FFF750FE224601462846FFF740
:109F1000D7FF00B1FEE723880133238038BD002B33
:109F2000FCD00022024B1A70BDE83840FFF7B6BDE6
:109F30008B48002020220021014812F0FEBD00BF06
:109F4000A83700202DE9F04116460C46002521488F
:109F5000FFF7A4FDA419204B45EB0506C3E9004615
:109F60000DF0E7FB01221D4B241A66F10006944216
:109F70001A7076F1000303DABDE8F0410DF027BE58
:109F8000FFF712FEA04275EB06031ADAFFF70CFE8C
:109F90008046FFF709FE2B460246314620460BF06D
:109FA000EFFE0F4F424678802B46204631463D80DB
:109FB0000BF0E6FE074811463A46FFF781FF38B13D
:109FC000FEE72A4621460348FFF77AFF00B1FEE785
:109FD000BDE8F081A8370020F01400208B48002055
:109FE0008647002008B50348FFF758FD0022024BC2
:109FF0001A7008BDA83700208B48002070B50DF0FE
:10A000004AF9054612F04DF8044608490B68086005
:10A010008342074B284682BF1A6801321A601E68C5
:10A020000DF03DF92046314670BD00BF8C37002051
:10A030008837002073B50C46154600261E4811F0DF
:10A040000AFF64191D4B46EB0605C3E9004512F0F3
:10A0500028F8201A4FF00104194B65F10001A042C5
:10A060001C7071F1000304DA02B0BDE870400DF01D
:10A07000AEBD4FF0FF33834276EB010310DA4FF0B1
:10A08000FF3200230BF07CFE0E4B114658801E80E1
:10A090002246009308480C4B11F0CFFE48B1FEE772
:10A0A00001462246084B0448009611F0C6FE00B156
:10A0B000FEE702B070BD00BF90370020E81400201A
:10A0C0008A480020824700206D9E000808B503489A
:10A0D00011F0C1FE0022024B1A7008BD903700201B
:10A0E0008A4800202DE9F04104460DF0DFF8224BAC
:10A0F00005461B78214E2BB93378EBB9BDE8F0410A
:10A100000DF0DAB81E4BD3E900870DF012FB0023E7
:10A110004045BB4103DA337873B92846EEE7204661
:10A12000FFF760FF367846B928460DF0C5F820469F
:10A13000BDE8F04102F04EBA0026124BD3E9008789
:10A1400011F0AFFF00234045BB410EDB2046FFF777
:10A15000BDFF28460DF0B0F816B1204602F03AFADD
:10A160002046BDE8F04102F059BA28460DF0A4F8A7
:10A17000002EDCD1BDE8F0818B4800208A48002009
:10A18000F0140020E814002008B5FEF7E5FD034BAD
:10A190001860BDE808400DF009B900BFC8370020BD
:10A1A000BFF34F8F0549064BCA6802F4E0621343C0
:10A1B000CB60BFF34F8F00BFFDE700BF00ED00E0B5
:10A1C0000400FA050E4B1B68D9070FD45A060FD4AA
:10A1D00013F0180F0ED199070ED49A060ED440F240
:10A1E0008472134214BF0620072070470020704776
:10A1F00002207047082070470120704703207047F5
:10A20000C837002010B501F02DFE044601F030FEE5
:10A2100021460246104802F02FF901F01DFE0446C7
:10A2200001F034FE214602460C4802F025F901F007
:10A2300019FE012340F2A172834013420AD000208C
:10A2400001F018FD002001F02BFCBDE810400020BB
:10A2500001F0DABB10BD00BFB4D80108CAD80108AC
:10A260000E4B10B51C68A0235C4308B90DF06FFAC3
:10A270000B4B1B68B3FBF4F204FB1233B0FBF4F29C
:10A2800004FB12002344181AB0FBF4F304FB130080
:10A29000A023B0FBF3F080B210BD00BFD037002088
:10A2A000CC3700202DE9F04104460D460DF0B5FDF8
:10A2B000002857D020460DF0B5FD002852D094F864
:10A2C000237017F010074DD1FF2D00D1FEE7204677
:10A2D0000DF07EFDA8B120460DF0B5FD0646002824
:10A2E00044D03C22224B02FB05335B785A1E90423D
:10A2F0000DD083420AD00133984235D00820BDE802
:10A30000F0813C221A4B02FB05335E7801274FF0A7
:10A310003C080C2318FB053303EB0713144F3B4495
:10A32000236194F82330DB0716D420460DF050FD4E
:10A3300028B108FB05F3FA18FE54536893603146C0
:10A3400020460DF08DFD3C2303FB05777968204600
:10A350004B1C7B600DF086FD0649204601EBC501D4
:10A360000DF087FB0020CAE70227D0E70120C6E7EF
:10A37000D4370020B248002010B5084C206811F0F6
:10A3800056FD012804D001220021206811F051FD62
:10A390002068BDE8104004F0DFBC00BF1438002086
:10A3A00038B504460CF082FF044B1D680CF084FFA6
:10A3B0002C4214BF0120002038BD00BF10380020FF
:10A3C00008B50220FFF7ECFF20B1034B1B6818789B
:10A3D000C0F3401008BD00BF0815002010B5064BA3
:10A3E00002201B681C88FFF7DBFF20B104F0070484
:10A3F000E31E5842584110BD0815002038B50D46DF
:10A4000004460CF053FF064B1A682DB114431C6030
:10A41000BDE838400CF050BF22EA0404F7E700BF63
:10A420001038002010B50CF041FF084B084A1B788B
:10A4300012789A4211BF0024064B1C7884F0010464
:10A440000CF03AFF04F0010010BD00BF9D48002051
:10A450009C4800209E48002073B50646244B254D9D
:10A4600018689B880090ADF8043033680C46286863
:10A47000BBB1972111F0A1FE024600B1FEE73168A1
:10A48000286804F02FFF3379834200D0FEE70122D1
:10A490000E23114628688DF8003011F0C0FE20B15F
:10A4A000FEE705F0EFF900B1FEE703222868114648
:10A4B00011F0A5FE7F2C18D0286811F064FDFF284C
:10A4C00008D104EB840464006946286811F05DFD3E
:10A4D00028B1FEE7286804F01BFF0446F4E7214694
:10A4E000286811F067FD00B1FEE702B070BD00BF43
:10A4F00010DA01081438002008B5054B00EB800085
:10A500004100186811F056FD00B1FEE708BD00BF1C
:10A510001438002008B5FFF753FF00B9FEE7082004
:10A52000FFF73EFF00B9FEE701214FF48060FFF71F
:10A5300065FF00210220FFF761FF00210820FFF7DF
:10A540005DFF044B186804F007FC0022024B1A70F0
:10A5500008BD00BF143800209F4800202DE9F043BB
:10A56000164601220D461C4BDFF880801B4F1C4C09
:10A5700018700021D8F8000085B03A7011F059FC2D
:10A580002279EBB29A4225D862799A4222D3DFF837
:10A590006090D9F80030A34205D07F212046FFF714
:10A5A0005BFFC9F80040FF238DF804300D4B3246A5
:10A5B000CDE902362946D8F8000001AB04F040FC92
:10A5C00028B17F22084B01201A7002233B7005B08E
:10A5D000BDE8F0830720FAE7BB490020BD49002011
:10A5E0001C38002020A10700BC490020143800209E
:10A5F0001838002010B504460220FFF7D1FEC0B184
:10A60000B4F5007F4FF0010110D12046FFF7F6FEB0
:10A6100000211020FFF7F2FE0A200021FFF7EEFED6
:10A62000BDE81040034B186804F096BB4FF480500F
:10A63000F0E710BD1438002007B50D4B0DF10601F1
:10A64000186811F047FC0B4BBDF8061093F9002079
:10A65000094B7F2A0B4413F90B0C05D17F2808BF47
:10A66000002003B05DF804FB9042A8BF1046F8E755
:10A6700014380020A1480020A24800202DE9F04F06
:10A680001446A20205461F46E5B040F1CD80354B89
:10A690000BA9186811F0E4FCBDF82E30022B40F233
:10A6A000C380272B0AD92723BDF83020ADF82E30E0
:10A6B000262A82BFADF8303000230E930BA924A8C0
:10A6C0000DF049FA9DF82E60002E00F0AD800DF1DE
:10A6D00091031093731EADF844300DF168090DF22B
:10A6E000111310A8C9F800300DF08BFBDFF884803F
:10A6F000002800F06F8108A910A80DF071FB98F8F0
:10A7000000605EB19DF8286046B1022E23D1002082
:10A7100008A900F0E7FFC643C6F3C036124A134942
:10A7200092F90020097807AB08A801F093FDDFF843
:10A7300048A0804610B3DAF8000010B10C4801F0D0
:10A74000DFFD834642460A4807A901F0F1FD58445F
:10A750005FFA80F819E0BDF82010002000F04CFFEF
:10A76000D9E700BF14380020BA480020BB480020B9
:10A770008C480020BA490020D0370020DAF8003099
:10A780001BB1BC4801F0BCFD804643463146B94A86
:10A79000CDF8009010A801F099FD002844D1DAF816
:10A7A0000030A3B10CF0D3FFBDF84430BDF82E202B
:10A7B0005B0103F5F073A3EB42131844BAF8008071
:10A7C000FFF74EFD4146024648460DF024FB484641
:10A7D0000DF023FB20B100214846FFF763FD18BBB5
:10A7E0000BA80DF0AAF9F8B9DDE90D83BDF830200A
:10A7F0004846002A08BF98460DF00FFB28B198F88C
:10A80000003043F0040388F800302EB198F800308F
:10A8100063F07F0388F8003099F80420284644A9A3
:10A820008DF8102111F01EFDE30104F0807240F15B
:10A830003F810220FFF7B4FD68B100211020FFF72F
:10A84000DDFDFFF7BDFD0646002800F02581012152
:10A850000820FFF7D3FD2020FFF7A2FD04F40053EA
:10A86000002800F0368123B101214FF40040FFF7AA
:10A87000C5FD14F4404F0AD000212020FFF7BEFD93
:10A8800000214FF40040FFF7B9FDFFF775FD2607E3
:10A8900040F18C81284611F0EAFB774EDFF8ECA1FD
:10A8A000014624AA3068DAF800B011F0D5FB8146E1
:10A8B000002800F0DB819DF890303068072B40F0D5
:10A8C000D581494644AA11F0CEFB002840F0CE8144
:10A8D000BDF8928008F101039BB20493269B049A71
:10A8E0001B78934240F0C281A8F103037B2B00F256
:10A8F000BD8124A80DF021F9002840F0B781BDF8F2
:10A900009430002B40F0F280279B1B7803939DF836
:10A910001D31002B40F0EC80584B1B78002B40F091
:10A92000A581DFF86CB19BF80020D3B20F2A059304
:10A9300000F29C818C200C22514910FB0320DFF88F
:10A9400054A109785044002900F08C8124A90DF00D
:10A9500002F94946306811F08CFB9DF81611002968
:10A9600000F0848108F10208306844A9ADF8148130
:10A9700011F07BFB002840F079819BF80010414BDF
:10A98000013101F00F018BF800109BF800101B78CB
:10A990003A4A591A4B424B4113708C23059A03FBD8
:10A9A00002FB049A0AEB0B030AF80B20BDF82421E2
:10A9B00018715A70BDF81E2152BA5A80449A9A6092
:10A9C000039B13F0200800F0568101210420FFF7BB
:10A9D00015FDEBE0012E98F8003018D103B328469E
:10A9E00044A911F03CFC034600283AD19DF81831E7
:10A9F000032B2BD09DF81831022B7FF415AF0020CC
:10AA0000BDF8101100F0F8FD002824DA0CE7002B47
:10AA1000E5D19DF8913003F00703012B3FF404AF1B
:10AA2000284611F01AFC10BB0BA80DF086F8002880
:10AA30007FF4FAAEDDE90D32BDF83010002908BF11
:10AA400013461A7862F07F021A70EDE644A900F00E
:10AA500049FE0028CEDB284611F0FFFB0346002804
:10AA6000E2D0022B05D108480DF04BFADCE60228B3
:10AA7000F9D0FEE78C480020143800209E480020C2
:10AA8000A04800209C480020EAD80108301500208A
:10AA90009D480020B8380020A74B186804F05CF9E6
:10AAA00001214FF48070FFF7A9FC31460220D0E667
:10AAB00007F002031A4304D04FF40070FFF79AFD29
:10AAC000C9E604F0A8421A433FF4C5AE4FF48050E3
:10AAD000F4E7002B7FF4DBAE07F0200213433FF4D2
:10AAE000D6AE4FF40060FFF785FDD0E6269B0CE75D
:10AAF000039B03F00703022B40F0B880584624A9BB
:10AB00000DF029F8049B49463068AAF8043011F08A
:10AB1000B0FAFFF755FC002842D0884B9BF8022082
:10AB20001B689B789A423BD19DF816313068002B08
:10AB300000F09C8008F1020844A9ADF8148111F0DE
:10AB400094FA002840F09280FFF758FA0023449AC4
:10AB50009DF81DC1824228BF01F1FF319DF91EE120
:10AB60009DF81F019A18BCF1000F61D0CAE90421B9
:10AB70008AF81DE08AF81E008AF8083001214FF497
:10AB80008070FFF73BFC00210A20FFF737FCFFF73E
:10AB900025FC28B1039BD80642BF0122684B1A70DE
:10ABA000FFF71CFC10B9306804F0D6F8A2014FF092
:10ABB00000080CD5624E41460420FFF71FFC337895
:10ABC0002BB15D4B186804F0C7F886F8008014F0CC
:10ABD000084F03D000210420FFF710FCA30003D589
:10ABE00000210420FFF70AFCA60705D50820FFF77F
:10ABF000D7FB08B1FFF78EFC78060DD50820FFF7CC
:10AC0000CFFB08B1FFF786FC0420FFF7C9FB18B1A2
:10AC100000210420FFF7F2FBF90561D5284611F069
:10AC2000F2F806460220FFF7BBFB052E2FD1FEE708
:10AC3000444BDFF82081C3E90421DA7F83F81DE06B
:10AC400022F00302DA77404A88F800E01178DFF852
:10AC500008E1926898778EF8000083F808C01977A9
:10AC60009A618BE7049B042B7FF470AE49463068F1
:10AC700011F0FFF99AE7DFF8C89099F80030002B3F
:10AC800094D0306804F068F889F800808EE7442E8C
:10AC900016D006F0EF03242B12D0032E0AD0022E7A
:10ACA0000DD0942E1CD17F22284B1A700222284BE3
:10ACB0001A7015E020B9264B1B78012BF2E778B10A
:10ACC0000420FFF76DFB18B100210420FFF796FB6D
:10ACD0000220FFF765FB18B14FF40070FFF78AFC04
:10ACE000BA0506D500222846114604F027FB00B11C
:10ACF000FEE7E30713D5284611F0C1F904462846BC
:10AD000004F02AF814F5007F11D0002CB8BF0334EA
:10AD100044F3870402220D4B1C700D4B1A7017F080
:10AD2000C00F06D165B0BDE8F04F0CF050BF7F24D6
:10AD3000F0E765B0BDE8F08F14380020081500205A
:10AD40009F48002058150020D4370020BC4900201F
:10AD5000BD490020BA480020BB48002030B50C4651
:10AD6000154A85B01068516802AB002C03C304F18A
:10AD7000FF350DD1FEF708F82B46CDE9000102AAF8
:10AD8000073412F8011D03F8011FA342F9D110E0A6
:10AD90002A460A4B0A4913F801098B4202F8010FAF
:10ADA000F9D1082220460DEB020111F09CFE00288B
:10ADB000E0D005B030BD00BF09D901080900E00F9F
:10ADC0000100E00F002310B50C461A4607480DF0AD
:10ADD0009BF82146002000F003FC054B0022214691
:10ADE000186811F0ECF900B1FEE710BD12D90108A6
:10ADF0001438002030B5134B87B001F1080414F863
:10AE0000012D8C4203F8012BF9D100256379A27939
:10AE1000E17905952078049060780390A0780290FD
:10AE2000E07801902079009007480DF06DF8074B0D
:10AE30002A462146186811F0CEF900B1FEE707B0A6
:10AE400030BD00BFB24800202BD9010814380020C3
:10AE500010B50C46002206480DF056F8054B0022AE
:10AE60002146186811F0B1F900B1FEE710BD00BF2E
:10AE70004DD901081438002008B50120FFF790FAD9
:10AE800010B902480DF040F8002008BD63D9010850
:10AE900008B50120FFF784FA10B102480DF034F82C
:10AEA000002008BD7ED9010810B50620FFF778FA0A
:10AEB000044650B906480DF027F820202146FFF738
:10AEC0009DFAFFF759FA204610BD0520FCE700BFA8
:10AED00063D9010870B50F4C0D462379834217D80A
:10AEE0006379834214D30C4E3368A3420CD00B4BCE
:10AEF00001221868002110F09CFF29462046FFF728
:10AF0000ABFA3460002070BD0846FFF7F5FAF9E7A8
:10AF10000720F8E71C3800201838002014380020DB
:10AF200030B5022085B00D46FFF73AFA48BB164B04
:10AF30001B78012B25D0FFF77FFB01462846FFF742
:10AF4000C9FF044670B9FF23CDE901008DF8043034
:10AF50000E4B03902946186801AA03F057FF0446D8
:10AF600018B10124204605B030BD09480CF0CCFFD3
:10AF700021462020FFF742FA064B9D71064B9D713A
:10AF8000F0E70D24EEE700BFBD4900201438002093
:10AF90009CD901085815002030150020F0B589B063
:10AFA0000D4617461E46FFF747FB01462846FFF7AA
:10AFB00091FF044600BBFF23CDE901008DF804306A
:10AFC00040F2011303908DF814008DF81E000D4817
:10AFD000ADF81C302946006801AB04AA0497069618
:10AFE00003F022FF044650B901212020FFF706FAA2
:10AFF000054B9D71054B9D71204609B0F0BD0124A4
:10B00000FAE700BF14380020581500203015002042
:10B01000F0B5022089B0FFF7C3F900B9FEE72F4D64
:10B020002B6803B9FEE71020FFF7BAF92B682C4E06
:10B030009B880DF10B018DF80B30012330681A4607
:10B0400011F004F89DF80B202968023A00230968E2
:10B0500092B2306810F0FAFF224B05AC93E807007B
:10B0600084E807002A6813681F78D369C7F340177C
:10B0700013BB1020FFF794F9B0B12A681A4B92F86D
:10B080002010997019490978D970917900943A463D
:10B09000306803F09DFE28B14FF48050FFF7AAFA04
:10B0A0000CF095FD09B0F0BD296823463A46897930
:10B0B000306803F07FFEEEE791690B44A03B0393F9
:10B0C0000023ADF810300A4B9179009301943A4671
:10B0D000306803AB03F08AFEDDE700BFB438002020
:10B0E0001438002018DA010814120020D8120020A9
:10B0F000081200202DE9F0410C460746FFF79CFAA4
:10B100000146A079FFF7E6FE054600285ED1022041
:10B11000FFF746F900B1FEE72E4B9C4200D0FEE758
:10B1200022682D4B9A4200D0FEE729464FF4F85092
:10B130002A4EFFF763F994F823103460284C10204E
:10B14000C1F38001FFF75AF9236863B1D6F8008094
:10B15000D8F81C303BB910F0A4FF40F6B832336881
:10B16000C8F81800DA61D4F80080B8F1000F10D0E8
:10B17000346894F82330DB070BD4D4E90603184471
:10B18000A030FFF76DF81FFA88F1024620460CF058
:10B1900042FE3068017AFFF785F80CF087F8044624
:10B1A00000212020FFF72AF901210220FFF726F9CC
:10B1B000FFF72EFF20460CF07FF84FF48050FFF78A
:10B1C000EFF818B1384603490EF001F92846BDE8FA
:10B1D000F08100BF08150020BC480020B4380020D2
:10B1E000D0370020004870470815002038B5154BAF
:10B1F00002209D79FFF7D4F808B17F2038BD124CAA
:10B200002378002BF9D110222946FFF7A7F900284F
:10B21000F3D110F046FF05462378012B05D110F03D
:10B2200040FF431BB3F5967FF6D32378022B0ABF6A
:10B23000064B7F2018784FF0000308BF40B2237000
:10B24000DCE700BF58150020BD490020BC490020A4
:10B25000014B1878704700BFA048002008B5044B88
:10B260001970044B186810F0BCFF00B1FEE708BD70
:10B27000A048002014380020014B1970704700BF0F
:10B28000BA49002010B50C4649B1064B186804F0C5
:10B290003FF80A2390FBF3F02070002010BD072038
:10B2A000FCE700BF1438002008B5074B1970FFF702
:10B2B000C3F9064B00EB8000410009B2186810F09A
:10B2C00079FE00B1FEE708BDA14800201438002037
:10B2D00008B5A1F10B030F2B09D8064B0B4403F85B
:10B2E0000B2CFFF7A9F9FFF707F9002008BD07208D
:10B2F000FCE700BFA248002021B1034B00201B78CF
:10B300000B70704707207047D8120020014B0020B7
:10B3100019707047D8120020054B1B782BB94FF4D9
:10B320007A7301205A43FFF719B90520704700BF0F
:10B33000BD490020F0B5DDE905540BB105B104B9F4
:10B34000FEE7134903F110074A7001F10C0216469B
:10B3500018685968083303C6BB423246F7D12B46FA
:10B360000C4D03F110062A4618685968083303C2C9
:10B37000B3421546F7D12346074C03F11005224688
:10B3800018685968083303C2AB421446F7D1F0BDC0
:10B39000D4370020F03700200038002010B50C46CC
:10B3A0000BF084FF024B5C60BDE810400BF084BFE3
:10B3B000D437002010B50C460BF078FF044B5A68C8
:10B3C000A24238BF5C60BDE810400BF075BF00BF03
:10B3D000D4370020014B002019607047D03700207F
:10B3E000014B1960704700BFCC3700202DE9F74FA3
:10B3F0000746DFF8D881684EFFF714F800283DD0E3
:10B400004FF4F850FEF7CCFF08B34FF48070FEF70E
:10B41000C7FF0546002800F09780604B00211B689D
:10B420004FF480701B785E4D13F0200F08BF00258D
:10B430000024FEF7E3FF5B4B2A46196800233846D9
:10B44000C1E9063323460DF0C9FF0CF0C0FB564B93
:10B450001B78012B40F09D80544B1A78022A40F053
:10B46000988000221A70524B3846197849B20DF074
:10B47000C1FF03B0BDE8F04F0CF0A9BBFEF7D2FF4F
:10B4800000285FD198F800508C230C2213FB052272
:10B49000B15C9019C1F3800B4FEAD11A01F07B0126
:10B4A000B15403FB05F17218424C92F801C0715C73
:10B4B00084F806C092F804900192A1802060FEF703
:10B4C0009DFD8C23019A03FB0565926895F9033075
:10B4D0008242394828BF01F1FF310370A878002566
:10B4E000AA18C4E904213C22A0773448637703708A
:10B4F000E37F84F8089002FB09F94AEA4B0A23F03B
:10B5000003034AEA030A2E4B2A4903EB090213F804
:10B5100009303846237793682A46A36184F81FA030
:10B520000DF04EFF0BF0C2FE98F80030013303F02F
:10B530000F0388F80030234B1D700BF0BDFE0CF09C
:10B5400046FB59E710259FE74FF40070FEF728FFF0
:10B55000044658B129464FF40070FEF74FFF0F2400
:10B56000214619480CF0D3FC002564E74FF48060B5
:10B57000FEF716FF014630B121464FF48060FEF71A
:10B580003DFF0E24ECE74FF48050FEF737FF0B240D
:10B59000E6E703B0BDE8F08FB838002008150020BA
:10B5A00030150020B4380020BB490020BD490020E0
:10B5B000BC49002058150020BA480020BB48002094
:10B5C000D43700209E480020B9D901089C480020AB
:10B5D000024B0146186810F04DBE00BF1438002021
:10B5E000034B0A461980034800210CF08DBC00BFB4
:10B5F000DA47002024DA010800200A4B1B8819448E
:10B60000094B89B21A888A4201D19A783AB9013035
:10B610000A2803F10403F5D14FF0FF30704700B260
:10B62000704700BFDA470020B247002038B50D460A
:10B630000024114B13F82420CAB101340A2CF9D18B
:10B640004FF0FF342B46224600210C480CF05FFCE3
:10B65000A3B2092B0DD80A4A00201288094B1544C1
:10B66000012223F8245003EB84039A7038BD24B2DE
:10B67000E8E70320FAE700BFB447002042DA0108F8
:10B68000DA470020B247002038B500200D46FFF70A
:10B69000B3FF044602462B46084800210CF037FC55
:10B6A000A3B2092B9BBF0020054B0A2003EB8402A9
:10B6B0009CBF907023F8240038BD00BF6FDA0108EA
:10B6C000B247002008B5002104480CF020FCBDE87A
:10B6D000084028220021024811F02FBA9EDA010802
:10B6E000B247002048880A880D4B024400201B887E
:10B6F00013448A8812FA83F3CA8812FA83F3094A38
:10B700009BB21188994201D1917839B901300A2848
:10B7100002F10402F5D14FF0FF30704700B27047DC
:10B72000DA4700208A47002038B50D460024154B23
:10B7300013F8242012B301340A2CF9D14FF0FF344E
:10B740002B462246002110480CF0E1FBA3B2092B46
:10B7500016D80E4B69881A882B8800200B441A448F
:10B76000AB88E98813FA82F2094B11FA82F223F8C6
:10B770002420012203EB84039A7038BD24B2DFE752
:10B780000320FAE78C470020C0DA0108DA470020DE
:10B790008A47002010B50020FFF7A4FF04460246A8
:10B7A000002108480CF0B3FBA3B2092B9BBF00207B
:10B7B000054B0A2003EB84029CBF907023F8240001
:10B7C00010BD00BFE7DA01088A47002008B5002154
:10B7D00004480CF09CFBBDE80840282200210248E8
:10B7E00011F0ABB907DB01088A47002010B5044609
:10B7F000054B186000F082F82046FFF7F7FD204661
:10B80000BDE81040FEF76EBC784100202DE9F047FE
:10B810001D461A4EDFF86C901746B6F88020B6F831
:10B82000823099F800A09BB2A3EB0A032B4492B29A
:10B8300003F07F039A42804616D0B6F88200A5EB4B
:10B840000A0207EB0A0116FA80F011F089F90023C9
:10B85000B6F8824089F80030A4B2A4EB0A042C4464
:10B8600004F07F04A6F882402A4639464046044B3D
:10B87000FBF7DCFFBDE8F0470CF0A9B9DC4700207E
:10B880000DB80008BF4900200122024B1A700CF0CD
:10B890009EB900BFBE49002070B500240A4B0B4E74
:10B8A0000B4DA3F880408022A3F88240094933461B
:10B8B0002868FBF7BBFF3346802207492868FBF75F
:10B8C000B5FF204670BD00BFDC4700200DB8000862
:10B8D000C0110020404A0020C04900200A4601460D
:10B8E000044808B50068044BFCF74EF8003818BF50
:10B8F000012008BDC011002089B800082DE9FF41D2
:10B900000BF0D4FC07462B48DFF8B480006803AB8B
:10B9100002AA01A90BF05CFC98F80060029D264C7D
:10B92000AE4213D2B4F882000199AA1B314414FA32
:10B9300080F011F015F9B4F8823088F8005015FA4B
:10B9400083F39B1B03F07F03A4F8823038460BF08F
:10B95000B3FCB4F88250B4F88030ADB29BB29D42D3
:10B960000DD2B4F88000B4F8801014FA80F0C1F160
:10B97000800189B20CF09BF90023A4F88030B4F860
:10B9800080309BB29D420BD0B4F88000B4F8801098
:10B9900014FA80F0691A89B20CF089F9A4F8805081
:10B9A000064B1A781AB100221A700CF082F904B012
:10B9B000BDE8F081C0110020DC470020BE49002016
:10B9C000BF490020034B1A780AB901221A700148B6
:10B9D000704700BF8015002008B500F0E1F9084A63
:10B9E000536A43F470235362EFF308834FF0CD3171
:10B9F000044A043B934200D208BD43F80419F9E716
:10BA000000ED00E0000000202DE9F04F0024C3B05D
:10BA1000FC22214603A80294264611F08EF8DFF896
:10BA200070B01A4FDFF86C80DFF86C90DFF86CA014
:10BA30009BF8003033B914B102A800F01DFD43B0EB
:10BA4000BDE8F08F06F00302032A14BF43464B46BD
:10BA5000019357F8043B02A8009352465B464FF40B
:10BA6000807120440AF000FD1BF8013B002BFBD144
:10BA7000721C12F00305D6B203D02044C5B22C4686
:10BA8000D6E702A800F0F8FCF9E700BF001000209C
:10BA90002CE0010827DB0108A8F201082ADB0108D5
:10BAA00040F60522604B2DE9F0411B8893420ED8E9
:10BAB000B3F5206F0DD840F20252934217D040F2F6
:10BAC000017293421DD040F2015293420AD0BDE868
:10BAD000F081A3F60223554C032B1AD8DFE803F0BC
